{"contracts/ComplaintNFT.sol":{"ComplaintNFT":{"abi":[{"inputs":[],"stateMutability":"nonpayable","type":"constructor"},{"anonymous":false,"inputs":[{"indexed":true,"internalType":"uint256","name":"complaintId","type":"uint256"},{"indexed":true,"internalType":"address","name":"citizen","type":"address"}],"name":"ComplaintSubmitted","type":"event"},{"inputs":[{"internalType":"uint256","name":"","type":"uint256"}],"name":"complaints","outputs":[{"internalType":"string","name":"name","type":"string"},{"internalType":"string","name":"phone","type":"string"},{"internalType":"string","name":"location","type":"string"},{"internalType":"string","name":"description","type":"string"},{"internalType":"enum ComplaintNFT.Status","name":"status","type":"uint8"},{"internalType":"uint256","name":"timestamp","type":"uint256"}],"stateMutability":"view","type":"function"},{"inputs":[{"internalType":"uint256","name":"complaintId","type":"uint256"}],"name":"getComplaint","outputs":[{"internalType":"string","name":"name","type":"string"},{"internalType":"string","name":"phone","type":"string"},{"internalType":"string","name":"location","type":"string"},{"internalType":"string","name":"description","type":"string"},{"internalType":"enum ComplaintNFT.Status","name":"status","type":"uint8"},{"internalType":"uint256","name":"timestamp","type":"uint256"}],"stateMutability":"view","type":"function"},{"inputs":[{"internalType":"string","name":"name","type":"string"},{"internalType":"string","name":"phone","type":"string"},{"internalType":"string","name":"location","type":"string"},{"internalType":"string","name":"description","type":"string"}],"name":"submitComplaint","outputs":[],"stateMutability":"nonpayable","type":"function"},{"inputs":[],"name":"totalComplaints","outputs":[{"internalType":"uint256","name":"","type":"uint256"}],"stateMutability":"view","type":"function"}],"evm":{"bytecode":{"linkReferences":{},"object":"608060405234801561001057600080fd5b5033600160006101000a81548173ffffffffffffffffffffffffffffffffffffffff021916908373ffffffffffffffffffffffffffffffffffffffff16021790555061100a806100616000396000f3fe608060405234801561001057600080fd5b506004361061004c5760003560e01c80637e69e91214610051578063852bef8e14610086578063a886b398146100a2578063dee8ae43146100c0575b600080fd5b61006b60048036038101906100669190610840565b6100f5565b60405161007d96959493929190610983565b60405180910390f35b6100a0600480360381019061009b9190610b35565b61035e565b005b6100aa6104b0565b6040516100b79190610c0c565b60405180910390f35b6100da60048036038101906100d59190610840565b6104b9565b6040516100ec96959493929190610983565b60405180910390f35b600260205280600052604060002060009150905080600001805461011890610c56565b80601f016020809104026020016040519081016040528092919081815260200182805461014490610c56565b80156101915780601f1061016657610100808354040283529160200191610191565b820191906000526020600020905b81548152906001019060200180831161017457829003601f168201915b5050505050908060010180546101a690610c56565b80601f01602080910402602001604051908101604052809291908181526020018280546101d290610c56565b801561021f5780601f106101f45761010080835404028352916020019161021f565b820191906000526020600020905b81548152906001019060200180831161020257829003601f168201915b50505050509080600201805461023490610c56565b80601f016020809104026020016040519081016040528092919081815260200182805461026090610c56565b80156102ad5780601f10610282576101008083540402835291602001916102ad565b820191906000526020600020905b81548152906001019060200180831161029057829003601f168201915b5050505050908060030180546102c290610c56565b80601f01602080910402602001604051908101604052809291908181526020018280546102ee90610c56565b801561033b5780601f106103105761010080835404028352916020019161033b565b820191906000526020600020905b81548152906001019060200180831161031e57829003601f168201915b5050505050908060040160009054906101000a900460ff16908060050154905086565b60016000808282546103709190610cb6565b925050819055506000805490506040518060c00160405280868152602001858152602001848152602001838152602001600060028111156103b4576103b36108fd565b5b8152602001428152506002600083815260200190815260200160002060008201518160000190816103e59190610e96565b5060208201518160010190816103fb9190610e96565b5060408201518160020190816104119190610e96565b5060608201518160030190816104279190610e96565b5060808201518160040160006101000a81548160ff02191690836002811115610453576104526108fd565b5b021790555060a082015181600501559050503373ffffffffffffffffffffffffffffffffffffffff16817f09a8d5fef4fc86ca6d7d6593666ab5efbef914477c88d73319d3f7077592a68960405160405180910390a35050505050565b60008054905090565b6060806060806000806000871180156104d457506000548711155b610513576040517f08c379a000000000000000000000000000000000000000000000000000000000815260040161050a90610fb4565b60405180910390fd5b6000600260008981526020019081526020016000206040518060c001604052908160008201805461054390610c56565b80601f016020809104026020016040519081016040528092919081815260200182805461056f90610c56565b80156105bc5780601f10610591576101008083540402835291602001916105bc565b820191906000526020600020905b81548152906001019060200180831161059f57829003601f168201915b505050505081526020016001820180546105d590610c56565b80601f016020809104026020016040519081016040528092919081815260200182805461060190610c56565b801561064e5780601f106106235761010080835404028352916020019161064e565b820191906000526020600020905b81548152906001019060200180831161063157829003601f168201915b5050505050815260200160028201805461066790610c56565b80601f016020809104026020016040519081016040528092919081815260200182805461069390610c56565b80156106e05780601f106106b5576101008083540402835291602001916106e0565b820191906000526020600020905b8154815290600101906020018083116106c357829003601f168201915b505050505081526020016003820180546106f990610c56565b80601f016020809104026020016040519081016040528092919081815260200182805461072590610c56565b80156107725780601f1061074757610100808354040283529160200191610772565b820191906000526020600020905b81548152906001019060200180831161075557829003601f168201915b505050505081526020016004820160009054906101000a900460ff1660028111156107a05761079f6108fd565b5b60028111156107b2576107b16108fd565b5b81526020016005820154815250509050806000015181602001518260400151836060015184608001518560a001519650965096509650965096505091939550919395565b6000604051905090565b600080fd5b600080fd5b6000819050919050565b61081d8161080a565b811461082857600080fd5b50565b60008135905061083a81610814565b92915050565b60006020828403121561085657610855610800565b5b60006108648482850161082b565b91505092915050565b600081519050919050565b600082825260208201905092915050565b60005b838110156108a757808201518184015260208101905061088c565b60008484015250505050565b6000601f19601f8301169050919050565b60006108cf8261086d565b6108d98185610878565b93506108e9818560208601610889565b6108f2816108b3565b840191505092915050565b7f4e487b7100000000000000000000000000000000000000000000000000000000600052602160045260246000fd5b6003811061093d5761093c6108fd565b5b50565b600081905061094e8261092c565b919050565b600061095e82610940565b9050919050565b61096e81610953565b82525050565b61097d8161080a565b82525050565b600060c082019050818103600083015261099d81896108c4565b905081810360208301526109b181886108c4565b905081810360408301526109c581876108c4565b905081810360608301526109d981866108c4565b90506109e86080830185610965565b6109f560a0830184610974565b979650505050505050565b600080fd5b600080fd5b7f4e487b7100000000000000000000000000000000000000000000000000000000600052604160045260246000fd5b610a42826108b3565b810181811067ffffffffffffffff82111715610a6157610a60610a0a565b5b80604052505050565b6000610a746107f6565b9050610a808282610a39565b919050565b600067ffffffffffffffff821115610aa057610a9f610a0a565b5b610aa9826108b3565b9050602081019050919050565b82818337600083830152505050565b6000610ad8610ad384610a85565b610a6a565b905082815260208101848484011115610af457610af3610a05565b5b610aff848285610ab6565b509392505050565b600082601f830112610b1c57610b1b610a00565b5b8135610b2c848260208601610ac5565b91505092915050565b60008060008060808587031215610b4f57610b4e610800565b5b600085013567ffffffffffffffff811115610b6d57610b6c610805565b5b610b7987828801610b07565b945050602085013567ffffffffffffffff811115610b9a57610b99610805565b5b610ba687828801610b07565b935050604085013567ffffffffffffffff811115610bc757610bc6610805565b5b610bd387828801610b07565b925050606085013567ffffffffffffffff811115610bf457610bf3610805565b5b610c0087828801610b07565b91505092959194509250565b6000602082019050610c216000830184610974565b92915050565b7f4e487b7100000000000000000000000000000000000000000000000000000000600052602260045260246000fd5b60006002820490506001821680610c6e57607f821691505b602082108103610c8157610c80610c27565b5b50919050565b7f4e487b7100000000000000000000000000000000000000000000000000000000600052601160045260246000fd5b6000610cc18261080a565b9150610ccc8361080a565b9250828201905080821115610ce457610ce3610c87565b5b92915050565b60008190508160005260206000209050919050565b60006020601f8301049050919050565b600082821b905092915050565b600060088302610d4c7fffffffffffffffffffffffffffffffffffffffffffffffffffffffffffffffff82610d0f565b610d568683610d0f565b95508019841693508086168417925050509392505050565b6000819050919050565b6000610d93610d8e610d898461080a565b610d6e565b61080a565b9050919050565b6000819050919050565b610dad83610d78565b610dc1610db982610d9a565b848454610d1c565b825550505050565b600090565b610dd6610dc9565b610de1818484610da4565b505050565b5b81811015610e0557610dfa600082610dce565b600181019050610de7565b5050565b601f821115610e4a57610e1b81610cea565b610e2484610cff565b81016020851015610e33578190505b610e47610e3f85610cff565b830182610de6565b50505b505050565b600082821c905092915050565b6000610e6d60001984600802610e4f565b1980831691505092915050565b6000610e868383610e5c565b9150826002028217905092915050565b610e9f8261086d565b67ffffffffffffffff811115610eb857610eb7610a0a565b5b610ec28254610c56565b610ecd828285610e09565b600060209050601f831160018114610f005760008415610eee578287015190505b610ef88582610e7a565b865550610f60565b601f198416610f0e86610cea565b60005b82811015610f3657848901518255600182019150602085019450602081019050610f11565b86831015610f535784890151610f4f601f891682610e5c565b8355505b6001600288020188555050505b505050505050565b7f496e76616c696420636f6d706c61696e74204944000000000000000000000000600082015250565b6000610f9e601483610878565b9150610fa982610f68565b602082019050919050565b60006020820190508181036000830152610fcd81610f91565b905091905056fea264697066735822122016cbe80af2624671f5e1721d6357fd9479a5cb7bcc04dc01020237f5b04f972364736f6c63430008140033","opcodes":"PUSH1 0x80 PUSH1 0x40 MSTORE CALLVALUE DUP1 ISZERO PUSH2 0x10 JUMPI PUSH1 0x0 DUP1 REVERT JUMPDEST POP CALLER PUSH1 0x1 PUSH1 0x0 PUSH2 0x100 EXP DUP2 SLOAD DUP2 PUSH20 0xFFFFFFFFFFFFFFFFFFFFFFFFFFFFFFFFFFFFFFFF MUL NOT AND SWAP1 DUP4 PUSH20 0xFFFFFFFFFFFFFFFFFFFFFFFFFFFFFFFFFFFFFFFF AND MUL OR SWAP1 SSTORE POP PUSH2 0x100A DUP1 PUSH2 0x61 PUSH1 0x0 CODECOPY PUSH1 0x0 RETURN INVALID PUSH1 0x80 PUSH1 0x40 MSTORE CALLVALUE DUP1 ISZERO PUSH2 0x10 JUMPI PUSH1 0x0 DUP1 REVERT JUMPDEST POP PUSH1 0x4 CALLDATASIZE LT PUSH2 0x4C JUMPI PUSH1 0x0 CALLDATALOAD PUSH1 0xE0 SHR DUP1 PUSH4 0x7E69E912 EQ PUSH2 0x51 JUMPI DUP1 PUSH4 0x852BEF8E EQ PUSH2 0x86 JUMPI DUP1 PUSH4 0xA886B398 EQ PUSH2 0xA2 JUMPI DUP1 PUSH4 0xDEE8AE43 EQ PUSH2 0xC0 JUMPI JUMPDEST PUSH1 0x0 DUP1 REVERT JUMPDEST PUSH2 0x6B PUSH1 0x4 DUP1 CALLDATASIZE SUB DUP2 ADD SWAP1 PUSH2 0x66 SWAP2 SWAP1 PUSH2 0x840 JUMP JUMPDEST PUSH2 0xF5 JUMP JUMPDEST PUSH1 0x40 MLOAD PUSH2 0x7D SWAP7 SWAP6 SWAP5 SWAP4 SWAP3 SWAP2 SWAP1 PUSH2 0x983 JUMP JUMPDEST PUSH1 0x40 MLOAD DUP1 SWAP2 SUB SWAP1 RETURN JUMPDEST PUSH2 0xA0 PUSH1 0x4 DUP1 CALLDATASIZE SUB DUP2 ADD SWAP1 PUSH2 0x9B SWAP2 SWAP1 PUSH2 0xB35 JUMP JUMPDEST PUSH2 0x35E JUMP JUMPDEST STOP JUMPDEST PUSH2 0xAA PUSH2 0x4B0 JUMP JUMPDEST PUSH1 0x40 MLOAD PUSH2 0xB7 SWAP2 SWAP1 PUSH2 0xC0C JUMP JUMPDEST PUSH1 0x40 MLOAD DUP1 SWAP2 SUB SWAP1 RETURN JUMPDEST PUSH2 0xDA PUSH1 0x4 DUP1 CALLDATASIZE SUB DUP2 ADD SWAP1 PUSH2 0xD5 SWAP2 SWAP1 PUSH2 0x840 JUMP JUMPDEST PUSH2 0x4B9 JUMP JUMPDEST PUSH1 0x40 MLOAD PUSH2 0xEC SWAP7 SWAP6 SWAP5 SWAP4 SWAP3 SWAP2 SWAP1 PUSH2 0x983 JUMP JUMPDEST PUSH1 0x40 MLOAD DUP1 SWAP2 SUB SWAP1 RETURN JUMPDEST PUSH1 0x2 PUSH1 0x20 MSTORE DUP1 PUSH1 0x0 MSTORE PUSH1 0x40 PUSH1 0x0 KECCAK256 PUSH1 0x0 SWAP2 POP SWAP1 POP DUP1 PUSH1 0x0 ADD DUP1 SLOAD PUSH2 0x118 SWAP1 PUSH2 0xC56 JUMP JUMPDEST DUP1 PUSH1 0x1F ADD PUSH1 0x20 DUP1 SWAP2 DIV MUL PUSH1 0x20 ADD PUSH1 0x40 MLOAD SWAP1 DUP2 ADD PUSH1 0x40 MSTORE DUP1 SWAP3 SWAP2 SWAP1 DUP2 DUP2 MSTORE PUSH1 0x20 ADD DUP3 DUP1 SLOAD PUSH2 0x144 SWAP1 PUSH2 0xC56 JUMP JUMPDEST DUP1 ISZERO PUSH2 0x191 JUMPI DUP1 PUSH1 0x1F LT PUSH2 0x166 JUMPI PUSH2 0x100 DUP1 DUP4 SLOAD DIV MUL DUP4 MSTORE SWAP2 PUSH1 0x20 ADD SWAP2 PUSH2 0x191 JUMP JUMPDEST DUP3 ADD SWAP2 SWAP1 PUSH1 0x0 MSTORE PUSH1 0x20 PUSH1 0x0 KECCAK256 SWAP1 JUMPDEST DUP2 SLOAD DUP2 MSTORE SWAP1 PUSH1 0x1 ADD SWAP1 PUSH1 0x20 ADD DUP1 DUP4 GT PUSH2 0x174 JUMPI DUP3 SWAP1 SUB PUSH1 0x1F AND DUP3 ADD SWAP2 JUMPDEST POP POP POP POP POP SWAP1 DUP1 PUSH1 0x1 ADD DUP1 SLOAD PUSH2 0x1A6 SWAP1 PUSH2 0xC56 JUMP JUMPDEST DUP1 PUSH1 0x1F ADD PUSH1 0x20 DUP1 SWAP2 DIV MUL PUSH1 0x20 ADD PUSH1 0x40 MLOAD SWAP1 DUP2 ADD PUSH1 0x40 MSTORE DUP1 SWAP3 SWAP2 SWAP1 DUP2 DUP2 MSTORE PUSH1 0x20 ADD DUP3 DUP1 SLOAD PUSH2 0x1D2 SWAP1 PUSH2 0xC56 JUMP JUMPDEST DUP1 ISZERO PUSH2 0x21F JUMPI DUP1 PUSH1 0x1F LT PUSH2 0x1F4 JUMPI PUSH2 0x100 DUP1 DUP4 SLOAD DIV MUL DUP4 MSTORE SWAP2 PUSH1 0x20 ADD SWAP2 PUSH2 0x21F JUMP JUMPDEST DUP3 ADD SWAP2 SWAP1 PUSH1 0x0 MSTORE PUSH1 0x20 PUSH1 0x0 KECCAK256 SWAP1 JUMPDEST DUP2 SLOAD DUP2 MSTORE SWAP1 PUSH1 0x1 ADD SWAP1 PUSH1 0x20 ADD DUP1 DUP4 GT PUSH2 0x202 JUMPI DUP3 SWAP1 SUB PUSH1 0x1F AND DUP3 ADD SWAP2 JUMPDEST POP POP POP POP POP SWAP1 DUP1 PUSH1 0x2 ADD DUP1 SLOAD PUSH2 0x234 SWAP1 PUSH2 0xC56 JUMP JUMPDEST DUP1 PUSH1 0x1F ADD PUSH1 0x20 DUP1 SWAP2 DIV MUL PUSH1 0x20 ADD PUSH1 0x40 MLOAD SWAP1 DUP2 ADD PUSH1 0x40 MSTORE DUP1 SWAP3 SWAP2 SWAP1 DUP2 DUP2 MSTORE PUSH1 0x20 ADD DUP3 DUP1 SLOAD PUSH2 0x260 SWAP1 PUSH2 0xC56 JUMP JUMPDEST DUP1 ISZERO PUSH2 0x2AD JUMPI DUP1 PUSH1 0x1F LT PUSH2 0x282 JUMPI PUSH2 0x100 DUP1 DUP4 SLOAD DIV MUL DUP4 MSTORE SWAP2 PUSH1 0x20 ADD SWAP2 PUSH2 0x2AD JUMP JUMPDEST DUP3 ADD SWAP2 SWAP1 PUSH1 0x0 MSTORE PUSH1 0x20 PUSH1 0x0 KECCAK256 SWAP1 JUMPDEST DUP2 SLOAD DUP2 MSTORE SWAP1 PUSH1 0x1 ADD SWAP1 PUSH1 0x20 ADD DUP1 DUP4 GT PUSH2 0x290 JUMPI DUP3 SWAP1 SUB PUSH1 0x1F AND DUP3 ADD SWAP2 JUMPDEST POP POP POP POP POP SWAP1 DUP1 PUSH1 0x3 ADD DUP1 SLOAD PUSH2 0x2C2 SWAP1 PUSH2 0xC56 JUMP JUMPDEST DUP1 PUSH1 0x1F ADD PUSH1 0x20 DUP1 SWAP2 DIV MUL PUSH1 0x20 ADD PUSH1 0x40 MLOAD SWAP1 DUP2 ADD PUSH1 0x40 MSTORE DUP1 SWAP3 SWAP2 SWAP1 DUP2 DUP2 MSTORE PUSH1 0x20 ADD DUP3 DUP1 SLOAD PUSH2 0x2EE SWAP1 PUSH2 0xC56 JUMP JUMPDEST DUP1 ISZERO PUSH2 0x33B JUMPI DUP1 PUSH1 0x1F LT PUSH2 0x310 JUMPI PUSH2 0x100 DUP1 DUP4 SLOAD DIV MUL DUP4 MSTORE SWAP2 PUSH1 0x20 ADD SWAP2 PUSH2 0x33B JUMP JUMPDEST DUP3 ADD SWAP2 SWAP1 PUSH1 0x0 MSTORE PUSH1 0x20 PUSH1 0x0 KECCAK256 SWAP1 JUMPDEST DUP2 SLOAD DUP2 MSTORE SWAP1 PUSH1 0x1 ADD SWAP1 PUSH1 0x20 ADD DUP1 DUP4 GT PUSH2 0x31E JUMPI DUP3 SWAP1 SUB PUSH1 0x1F AND DUP3 ADD SWAP2 JUMPDEST POP POP POP POP POP SWAP1 DUP1 PUSH1 0x4 ADD PUSH1 0x0 SWAP1 SLOAD SWAP1 PUSH2 0x100 EXP SWAP1 DIV PUSH1 0xFF AND SWAP1 DUP1 PUSH1 0x5 ADD SLOAD SWAP1 POP DUP7 JUMP JUMPDEST PUSH1 0x1 PUSH1 0x0 DUP1 DUP3 DUP3 SLOAD PUSH2 0x370 SWAP2 SWAP1 PUSH2 0xCB6 JUMP JUMPDEST SWAP3 POP POP DUP2 SWAP1 SSTORE POP PUSH1 0x0 DUP1 SLOAD SWAP1 POP PUSH1 0x40 MLOAD DUP1 PUSH1 0xC0 ADD PUSH1 0x40 MSTORE DUP1 DUP7 DUP2 MSTORE PUSH1 0x20 ADD DUP6 DUP2 MSTORE PUSH1 0x20 ADD DUP5 DUP2 MSTORE PUSH1 0x20 ADD DUP4 DUP2 MSTORE PUSH1 0x20 ADD PUSH1 0x0 PUSH1 0x2 DUP2 GT ISZERO PUSH2 0x3B4 JUMPI PUSH2 0x3B3 PUSH2 0x8FD JUMP JUMPDEST JUMPDEST DUP2 MSTORE PUSH1 0x20 ADD TIMESTAMP DUP2 MSTORE POP PUSH1 0x2 PUSH1 0x0 DUP4 DUP2 MSTORE PUSH1 0x20 ADD SWAP1 DUP2 MSTORE PUSH1 0x20 ADD PUSH1 0x0 KECCAK256 PUSH1 0x0 DUP3 ADD MLOAD DUP2 PUSH1 0x0 ADD SWAP1 DUP2 PUSH2 0x3E5 SWAP2 SWAP1 PUSH2 0xE96 JUMP JUMPDEST POP PUSH1 0x20 DUP3 ADD MLOAD DUP2 PUSH1 0x1 ADD SWAP1 DUP2 PUSH2 0x3FB SWAP2 SWAP1 PUSH2 0xE96 JUMP JUMPDEST POP PUSH1 0x40 DUP3 ADD MLOAD DUP2 PUSH1 0x2 ADD SWAP1 DUP2 PUSH2 0x411 SWAP2 SWAP1 PUSH2 0xE96 JUMP JUMPDEST POP PUSH1 0x60 DUP3 ADD MLOAD DUP2 PUSH1 0x3 ADD SWAP1 DUP2 PUSH2 0x427 SWAP2 SWAP1 PUSH2 0xE96 JUMP JUMPDEST POP PUSH1 0x80 DUP3 ADD MLOAD DUP2 PUSH1 0x4 ADD PUSH1 0x0 PUSH2 0x100 EXP DUP2 SLOAD DUP2 PUSH1 0xFF MUL NOT AND SWAP1 DUP4 PUSH1 0x2 DUP2 GT ISZERO PUSH2 0x453 JUMPI PUSH2 0x452 PUSH2 0x8FD JUMP JUMPDEST JUMPDEST MUL OR SWAP1 SSTORE POP PUSH1 0xA0 DUP3 ADD MLOAD DUP2 PUSH1 0x5 ADD SSTORE SWAP1 POP POP CALLER PUSH20 0xFFFFFFFFFFFFFFFFFFFFFFFFFFFFFFFFFFFFFFFF AND DUP2 PUSH32 0x9A8D5FEF4FC86CA6D7D6593666AB5EFBEF914477C88D73319D3F7077592A689 PUSH1 0x40 MLOAD PUSH1 0x40 MLOAD DUP1 SWAP2 SUB SWAP1 LOG3 POP POP POP POP POP JUMP JUMPDEST PUSH1 0x0 DUP1 SLOAD SWAP1 POP SWAP1 JUMP JUMPDEST PUSH1 0x60 DUP1 PUSH1 0x60 DUP1 PUSH1 0x0 DUP1 PUSH1 0x0 DUP8 GT DUP1 ISZERO PUSH2 0x4D4 JUMPI POP PUSH1 0x0 SLOAD DUP8 GT ISZERO JUMPDEST PUSH2 0x513 JUMPI PUSH1 0x40 MLOAD PUSH32 0x8C379A000000000000000000000000000000000000000000000000000000000 DUP2 MSTORE PUSH1 0x4 ADD PUSH2 0x50A SWAP1 PUSH2 0xFB4 JUMP JUMPDEST PUSH1 0x40 MLOAD DUP1 SWAP2 SUB SWAP1 REVERT JUMPDEST PUSH1 0x0 PUSH1 0x2 PUSH1 0x0 DUP10 DUP2 MSTORE PUSH1 0x20 ADD SWAP1 DUP2 MSTORE PUSH1 0x20 ADD PUSH1 0x0 KECCAK256 PUSH1 0x40 MLOAD DUP1 PUSH1 0xC0 ADD PUSH1 0x40 MSTORE SWAP1 DUP2 PUSH1 0x0 DUP3 ADD DUP1 SLOAD PUSH2 0x543 SWAP1 PUSH2 0xC56 JUMP JUMPDEST DUP1 PUSH1 0x1F ADD PUSH1 0x20 DUP1 SWAP2 DIV MUL PUSH1 0x20 ADD PUSH1 0x40 MLOAD SWAP1 DUP2 ADD PUSH1 0x40 MSTORE DUP1 SWAP3 SWAP2 SWAP1 DUP2 DUP2 MSTORE PUSH1 0x20 ADD DUP3 DUP1 SLOAD PUSH2 0x56F SWAP1 PUSH2 0xC56 JUMP JUMPDEST DUP1 ISZERO PUSH2 0x5BC JUMPI DUP1 PUSH1 0x1F LT PUSH2 0x591 JUMPI PUSH2 0x100 DUP1 DUP4 SLOAD DIV MUL DUP4 MSTORE SWAP2 PUSH1 0x20 ADD SWAP2 PUSH2 0x5BC JUMP JUMPDEST DUP3 ADD SWAP2 SWAP1 PUSH1 0x0 MSTORE PUSH1 0x20 PUSH1 0x0 KECCAK256 SWAP1 JUMPDEST DUP2 SLOAD DUP2 MSTORE SWAP1 PUSH1 0x1 ADD SWAP1 PUSH1 0x20 ADD DUP1 DUP4 GT PUSH2 0x59F JUMPI DUP3 SWAP1 SUB PUSH1 0x1F AND DUP3 ADD SWAP2 JUMPDEST POP POP POP POP POP DUP2 MSTORE PUSH1 0x20 ADD PUSH1 0x1 DUP3 ADD DUP1 SLOAD PUSH2 0x5D5 SWAP1 PUSH2 0xC56 JUMP JUMPDEST DUP1 PUSH1 0x1F ADD PUSH1 0x20 DUP1 SWAP2 DIV MUL PUSH1 0x20 ADD PUSH1 0x40 MLOAD SWAP1 DUP2 ADD PUSH1 0x40 MSTORE DUP1 SWAP3 SWAP2 SWAP1 DUP2 DUP2 MSTORE PUSH1 0x20 ADD DUP3 DUP1 SLOAD PUSH2 0x601 SWAP1 PUSH2 0xC56 JUMP JUMPDEST DUP1 ISZERO PUSH2 0x64E JUMPI DUP1 PUSH1 0x1F LT PUSH2 0x623 JUMPI PUSH2 0x100 DUP1 DUP4 SLOAD DIV MUL DUP4 MSTORE SWAP2 PUSH1 0x20 ADD SWAP2 PUSH2 0x64E JUMP JUMPDEST DUP3 ADD SWAP2 SWAP1 PUSH1 0x0 MSTORE PUSH1 0x20 PUSH1 0x0 KECCAK256 SWAP1 JUMPDEST DUP2 SLOAD DUP2 MSTORE SWAP1 PUSH1 0x1 ADD SWAP1 PUSH1 0x20 ADD DUP1 DUP4 GT PUSH2 0x631 JUMPI DUP3 SWAP1 SUB PUSH1 0x1F AND DUP3 ADD SWAP2 JUMPDEST POP POP POP POP POP DUP2 MSTORE PUSH1 0x20 ADD PUSH1 0x2 DUP3 ADD DUP1 SLOAD PUSH2 0x667 SWAP1 PUSH2 0xC56 JUMP JUMPDEST DUP1 PUSH1 0x1F ADD PUSH1 0x20 DUP1 SWAP2 DIV MUL PUSH1 0x20 ADD PUSH1 0x40 MLOAD SWAP1 DUP2 ADD PUSH1 0x40 MSTORE DUP1 SWAP3 SWAP2 SWAP1 DUP2 DUP2 MSTORE PUSH1 0x20 ADD DUP3 DUP1 SLOAD PUSH2 0x693 SWAP1 PUSH2 0xC56 JUMP JUMPDEST DUP1 ISZERO PUSH2 0x6E0 JUMPI DUP1 PUSH1 0x1F LT PUSH2 0x6B5 JUMPI PUSH2 0x100 DUP1 DUP4 SLOAD DIV MUL DUP4 MSTORE SWAP2 PUSH1 0x20 ADD SWAP2 PUSH2 0x6E0 JUMP JUMPDEST DUP3 ADD SWAP2 SWAP1 PUSH1 0x0 MSTORE PUSH1 0x20 PUSH1 0x0 KECCAK256 SWAP1 JUMPDEST DUP2 SLOAD DUP2 MSTORE SWAP1 PUSH1 0x1 ADD SWAP1 PUSH1 0x20 ADD DUP1 DUP4 GT PUSH2 0x6C3 JUMPI DUP3 SWAP1 SUB PUSH1 0x1F AND DUP3 ADD SWAP2 JUMPDEST POP POP POP POP POP DUP2 MSTORE PUSH1 0x20 ADD PUSH1 0x3 DUP3 ADD DUP1 SLOAD PUSH2 0x6F9 SWAP1 PUSH2 0xC56 JUMP JUMPDEST DUP1 PUSH1 0x1F ADD PUSH1 0x20 DUP1 SWAP2 DIV MUL PUSH1 0x20 ADD PUSH1 0x40 MLOAD SWAP1 DUP2 ADD PUSH1 0x40 MSTORE DUP1 SWAP3 SWAP2 SWAP1 DUP2 DUP2 MSTORE PUSH1 0x20 ADD DUP3 DUP1 SLOAD PUSH2 0x725 SWAP1 PUSH2 0xC56 JUMP JUMPDEST DUP1 ISZERO PUSH2 0x772 JUMPI DUP1 PUSH1 0x1F LT PUSH2 0x747 JUMPI PUSH2 0x100 DUP1 DUP4 SLOAD DIV MUL DUP4 MSTORE SWAP2 PUSH1 0x20 ADD SWAP2 PUSH2 0x772 JUMP JUMPDEST DUP3 ADD SWAP2 SWAP1 PUSH1 0x0 MSTORE PUSH1 0x20 PUSH1 0x0 KECCAK256 SWAP1 JUMPDEST DUP2 SLOAD DUP2 MSTORE SWAP1 PUSH1 0x1 ADD SWAP1 PUSH1 0x20 ADD DUP1 DUP4 GT PUSH2 0x755 JUMPI DUP3 SWAP1 SUB PUSH1 0x1F AND DUP3 ADD SWAP2 JUMPDEST POP POP POP POP POP DUP2 MSTORE PUSH1 0x20 ADD PUSH1 0x4 DUP3 ADD PUSH1 0x0 SWAP1 SLOAD SWAP1 PUSH2 0x100 EXP SWAP1 DIV PUSH1 0xFF AND PUSH1 0x2 DUP2 GT ISZERO PUSH2 0x7A0 JUMPI PUSH2 0x79F PUSH2 0x8FD JUMP JUMPDEST JUMPDEST PUSH1 0x2 DUP2 GT ISZERO PUSH2 0x7B2 JUMPI PUSH2 0x7B1 PUSH2 0x8FD JUMP JUMPDEST JUMPDEST DUP2 MSTORE PUSH1 0x20 ADD PUSH1 0x5 DUP3 ADD SLOAD DUP2 MSTORE POP POP SWAP1 POP DUP1 PUSH1 0x0 ADD MLOAD DUP2 PUSH1 0x20 ADD MLOAD DUP3 PUSH1 0x40 ADD MLOAD DUP4 PUSH1 0x60 ADD MLOAD DUP5 PUSH1 0x80 ADD MLOAD DUP6 PUSH1 0xA0 ADD MLOAD SWAP7 POP SWAP7 POP SWAP7 POP SWAP7 POP SWAP7 POP SWAP7 POP POP SWAP2 SWAP4 SWAP6 POP SWAP2 SWAP4 SWAP6 JUMP JUMPDEST PUSH1 0x0 PUSH1 0x40 MLOAD SWAP1 POP SWAP1 JUMP JUMPDEST PUSH1 0x0 DUP1 REVERT JUMPDEST PUSH1 0x0 DUP1 REVERT JUMPDEST PUSH1 0x0 DUP2 SWAP1 POP SWAP2 SWAP1 POP JUMP JUMPDEST PUSH2 0x81D DUP2 PUSH2 0x80A JUMP JUMPDEST DUP2 EQ PUSH2 0x828 JUMPI PUSH1 0x0 DUP1 REVERT JUMPDEST POP JUMP JUMPDEST PUSH1 0x0 DUP2 CALLDATALOAD SWAP1 POP PUSH2 0x83A DUP2 PUSH2 0x814 JUMP JUMPDEST SWAP3 SWAP2 POP POP JUMP JUMPDEST PUSH1 0x0 PUSH1 0x20 DUP3 DUP5 SUB SLT ISZERO PUSH2 0x856 JUMPI PUSH2 0x855 PUSH2 0x800 JUMP JUMPDEST JUMPDEST PUSH1 0x0 PUSH2 0x864 DUP5 DUP3 DUP6 ADD PUSH2 0x82B JUMP JUMPDEST SWAP2 POP POP SWAP3 SWAP2 POP POP JUMP JUMPDEST PUSH1 0x0 DUP2 MLOAD SWAP1 POP SWAP2 SWAP1 POP JUMP JUMPDEST PUSH1 0x0 DUP3 DUP3 MSTORE PUSH1 0x20 DUP3 ADD SWAP1 POP SWAP3 SWAP2 POP POP JUMP JUMPDEST PUSH1 0x0 JUMPDEST DUP4 DUP2 LT ISZERO PUSH2 0x8A7 JUMPI DUP1 DUP3 ADD MLOAD DUP2 DUP5 ADD MSTORE PUSH1 0x20 DUP2 ADD SWAP1 POP PUSH2 0x88C JUMP JUMPDEST PUSH1 0x0 DUP5 DUP5 ADD MSTORE POP POP POP POP JUMP JUMPDEST PUSH1 0x0 PUSH1 0x1F NOT PUSH1 0x1F DUP4 ADD AND SWAP1 POP SWAP2 SWAP1 POP JUMP JUMPDEST PUSH1 0x0 PUSH2 0x8CF DUP3 PUSH2 0x86D JUMP JUMPDEST PUSH2 0x8D9 DUP2 DUP6 PUSH2 0x878 JUMP JUMPDEST SWAP4 POP PUSH2 0x8E9 DUP2 DUP6 PUSH1 0x20 DUP7 ADD PUSH2 0x889 JUMP JUMPDEST PUSH2 0x8F2 DUP2 PUSH2 0x8B3 JUMP JUMPDEST DUP5 ADD SWAP2 POP POP SWAP3 SWAP2 POP POP JUMP JUMPDEST PUSH32 0x4E487B7100000000000000000000000000000000000000000000000000000000 PUSH1 0x0 MSTORE PUSH1 0x21 PUSH1 0x4 MSTORE PUSH1 0x24 PUSH1 0x0 REVERT JUMPDEST PUSH1 0x3 DUP2 LT PUSH2 0x93D JUMPI PUSH2 0x93C PUSH2 0x8FD JUMP JUMPDEST JUMPDEST POP JUMP JUMPDEST PUSH1 0x0 DUP2 SWAP1 POP PUSH2 0x94E DUP3 PUSH2 0x92C JUMP JUMPDEST SWAP2 SWAP1 POP JUMP JUMPDEST PUSH1 0x0 PUSH2 0x95E DUP3 PUSH2 0x940 JUMP JUMPDEST SWAP1 POP SWAP2 SWAP1 POP JUMP JUMPDEST PUSH2 0x96E DUP2 PUSH2 0x953 JUMP JUMPDEST DUP3 MSTORE POP POP JUMP JUMPDEST PUSH2 0x97D DUP2 PUSH2 0x80A JUMP JUMPDEST DUP3 MSTORE POP POP JUMP JUMPDEST PUSH1 0x0 PUSH1 0xC0 DUP3 ADD SWAP1 POP DUP2 DUP2 SUB PUSH1 0x0 DUP4 ADD MSTORE PUSH2 0x99D DUP2 DUP10 PUSH2 0x8C4 JUMP JUMPDEST SWAP1 POP DUP2 DUP2 SUB PUSH1 0x20 DUP4 ADD MSTORE PUSH2 0x9B1 DUP2 DUP9 PUSH2 0x8C4 JUMP JUMPDEST SWAP1 POP DUP2 DUP2 SUB PUSH1 0x40 DUP4 ADD MSTORE PUSH2 0x9C5 DUP2 DUP8 PUSH2 0x8C4 JUMP JUMPDEST SWAP1 POP DUP2 DUP2 SUB PUSH1 0x60 DUP4 ADD MSTORE PUSH2 0x9D9 DUP2 DUP7 PUSH2 0x8C4 JUMP JUMPDEST SWAP1 POP PUSH2 0x9E8 PUSH1 0x80 DUP4 ADD DUP6 PUSH2 0x965 JUMP JUMPDEST PUSH2 0x9F5 PUSH1 0xA0 DUP4 ADD DUP5 PUSH2 0x974 JUMP JUMPDEST SWAP8 SWAP7 POP POP POP POP POP POP POP JUMP JUMPDEST PUSH1 0x0 DUP1 REVERT JUMPDEST PUSH1 0x0 DUP1 REVERT JUMPDEST PUSH32 0x4E487B7100000000000000000000000000000000000000000000000000000000 PUSH1 0x0 MSTORE PUSH1 0x41 PUSH1 0x4 MSTORE PUSH1 0x24 PUSH1 0x0 REVERT JUMPDEST PUSH2 0xA42 DUP3 PUSH2 0x8B3 JUMP JUMPDEST DUP2 ADD DUP2 DUP2 LT PUSH8 0xFFFFFFFFFFFFFFFF DUP3 GT OR ISZERO PUSH2 0xA61 JUMPI PUSH2 0xA60 PUSH2 0xA0A JUMP JUMPDEST JUMPDEST DUP1 PUSH1 0x40 MSTORE POP POP POP JUMP JUMPDEST PUSH1 0x0 PUSH2 0xA74 PUSH2 0x7F6 JUMP JUMPDEST SWAP1 POP PUSH2 0xA80 DUP3 DUP3 PUSH2 0xA39 JUMP JUMPDEST SWAP2 SWAP1 POP JUMP JUMPDEST PUSH1 0x0 PUSH8 0xFFFFFFFFFFFFFFFF DUP3 GT ISZERO PUSH2 0xAA0 JUMPI PUSH2 0xA9F PUSH2 0xA0A JUMP JUMPDEST JUMPDEST PUSH2 0xAA9 DUP3 PUSH2 0x8B3 JUMP JUMPDEST SWAP1 POP PUSH1 0x20 DUP2 ADD SWAP1 POP SWAP2 SWAP1 POP JUMP JUMPDEST DUP3 DUP2 DUP4 CALLDATACOPY PUSH1 0x0 DUP4 DUP4 ADD MSTORE POP POP POP JUMP JUMPDEST PUSH1 0x0 PUSH2 0xAD8 PUSH2 0xAD3 DUP5 PUSH2 0xA85 JUMP JUMPDEST PUSH2 0xA6A JUMP JUMPDEST SWAP1 POP DUP3 DUP2 MSTORE PUSH1 0x20 DUP2 ADD DUP5 DUP5 DUP5 ADD GT ISZERO PUSH2 0xAF4 JUMPI PUSH2 0xAF3 PUSH2 0xA05 JUMP JUMPDEST JUMPDEST PUSH2 0xAFF DUP5 DUP3 DUP6 PUSH2 0xAB6 JUMP JUMPDEST POP SWAP4 SWAP3 POP POP POP JUMP JUMPDEST PUSH1 0x0 DUP3 PUSH1 0x1F DUP4 ADD SLT PUSH2 0xB1C JUMPI PUSH2 0xB1B PUSH2 0xA00 JUMP JUMPDEST JUMPDEST DUP2 CALLDATALOAD PUSH2 0xB2C DUP5 DUP3 PUSH1 0x20 DUP7 ADD PUSH2 0xAC5 JUMP JUMPDEST SWAP2 POP POP SWAP3 SWAP2 POP POP JUMP JUMPDEST PUSH1 0x0 DUP1 PUSH1 0x0 DUP1 PUSH1 0x80 DUP6 DUP8 SUB SLT ISZERO PUSH2 0xB4F JUMPI PUSH2 0xB4E PUSH2 0x800 JUMP JUMPDEST JUMPDEST PUSH1 0x0 DUP6 ADD CALLDATALOAD PUSH8 0xFFFFFFFFFFFFFFFF DUP2 GT ISZERO PUSH2 0xB6D JUMPI PUSH2 0xB6C PUSH2 0x805 JUMP JUMPDEST JUMPDEST PUSH2 0xB79 DUP8 DUP3 DUP9 ADD PUSH2 0xB07 JUMP JUMPDEST SWAP5 POP POP PUSH1 0x20 DUP6 ADD CALLDATALOAD PUSH8 0xFFFFFFFFFFFFFFFF DUP2 GT ISZERO PUSH2 0xB9A JUMPI PUSH2 0xB99 PUSH2 0x805 JUMP JUMPDEST JUMPDEST PUSH2 0xBA6 DUP8 DUP3 DUP9 ADD PUSH2 0xB07 JUMP JUMPDEST SWAP4 POP POP PUSH1 0x40 DUP6 ADD CALLDATALOAD PUSH8 0xFFFFFFFFFFFFFFFF DUP2 GT ISZERO PUSH2 0xBC7 JUMPI PUSH2 0xBC6 PUSH2 0x805 JUMP JUMPDEST JUMPDEST PUSH2 0xBD3 DUP8 DUP3 DUP9 ADD PUSH2 0xB07 JUMP JUMPDEST SWAP3 POP POP PUSH1 0x60 DUP6 ADD CALLDATALOAD PUSH8 0xFFFFFFFFFFFFFFFF DUP2 GT ISZERO PUSH2 0xBF4 JUMPI PUSH2 0xBF3 PUSH2 0x805 JUMP JUMPDEST JUMPDEST PUSH2 0xC00 DUP8 DUP3 DUP9 ADD PUSH2 0xB07 JUMP JUMPDEST SWAP2 POP POP SWAP3 SWAP6 SWAP2 SWAP5 POP SWAP3 POP JUMP JUMPDEST PUSH1 0x0 PUSH1 0x20 DUP3 ADD SWAP1 POP PUSH2 0xC21 PUSH1 0x0 DUP4 ADD DUP5 PUSH2 0x974 JUMP JUMPDEST SWAP3 SWAP2 POP POP JUMP JUMPDEST PUSH32 0x4E487B7100000000000000000000000000000000000000000000000000000000 PUSH1 0x0 MSTORE PUSH1 0x22 PUSH1 0x4 MSTORE PUSH1 0x24 PUSH1 0x0 REVERT JUMPDEST PUSH1 0x0 PUSH1 0x2 DUP3 DIV SWAP1 POP PUSH1 0x1 DUP3 AND DUP1 PUSH2 0xC6E JUMPI PUSH1 0x7F DUP3 AND SWAP2 POP JUMPDEST PUSH1 0x20 DUP3 LT DUP2 SUB PUSH2 0xC81 JUMPI PUSH2 0xC80 PUSH2 0xC27 JUMP JUMPDEST JUMPDEST POP SWAP2 SWAP1 POP JUMP JUMPDEST PUSH32 0x4E487B7100000000000000000000000000000000000000000000000000000000 PUSH1 0x0 MSTORE PUSH1 0x11 PUSH1 0x4 MSTORE PUSH1 0x24 PUSH1 0x0 REVERT JUMPDEST PUSH1 0x0 PUSH2 0xCC1 DUP3 PUSH2 0x80A JUMP JUMPDEST SWAP2 POP PUSH2 0xCCC DUP4 PUSH2 0x80A JUMP JUMPDEST SWAP3 POP DUP3 DUP3 ADD SWAP1 POP DUP1 DUP3 GT ISZERO PUSH2 0xCE4 JUMPI PUSH2 0xCE3 PUSH2 0xC87 JUMP JUMPDEST JUMPDEST SWAP3 SWAP2 POP POP JUMP JUMPDEST PUSH1 0x0 DUP2 SWAP1 POP DUP2 PUSH1 0x0 MSTORE PUSH1 0x20 PUSH1 0x0 KECCAK256 SWAP1 POP SWAP2 SWAP1 POP JUMP JUMPDEST PUSH1 0x0 PUSH1 0x20 PUSH1 0x1F DUP4 ADD DIV SWAP1 POP SWAP2 SWAP1 POP JUMP JUMPDEST PUSH1 0x0 DUP3 DUP3 SHL SWAP1 POP SWAP3 SWAP2 POP POP JUMP JUMPDEST PUSH1 0x0 PUSH1 0x8 DUP4 MUL PUSH2 0xD4C PUSH32 0xFFFFFFFFFFFFFFFFFFFFFFFFFFFFFFFFFFFFFFFFFFFFFFFFFFFFFFFFFFFFFFFF DUP3 PUSH2 0xD0F JUMP JUMPDEST PUSH2 0xD56 DUP7 DUP4 PUSH2 0xD0F JUMP JUMPDEST SWAP6 POP DUP1 NOT DUP5 AND SWAP4 POP DUP1 DUP7 AND DUP5 OR SWAP3 POP POP POP SWAP4 SWAP3 POP POP POP JUMP JUMPDEST PUSH1 0x0 DUP2 SWAP1 POP SWAP2 SWAP1 POP JUMP JUMPDEST PUSH1 0x0 PUSH2 0xD93 PUSH2 0xD8E PUSH2 0xD89 DUP5 PUSH2 0x80A JUMP JUMPDEST PUSH2 0xD6E JUMP JUMPDEST PUSH2 0x80A JUMP JUMPDEST SWAP1 POP SWAP2 SWAP1 POP JUMP JUMPDEST PUSH1 0x0 DUP2 SWAP1 POP SWAP2 SWAP1 POP JUMP JUMPDEST PUSH2 0xDAD DUP4 PUSH2 0xD78 JUMP JUMPDEST PUSH2 0xDC1 PUSH2 0xDB9 DUP3 PUSH2 0xD9A JUMP JUMPDEST DUP5 DUP5 SLOAD PUSH2 0xD1C JUMP JUMPDEST DUP3 SSTORE POP POP POP POP JUMP JUMPDEST PUSH1 0x0 SWAP1 JUMP JUMPDEST PUSH2 0xDD6 PUSH2 0xDC9 JUMP JUMPDEST PUSH2 0xDE1 DUP2 DUP5 DUP5 PUSH2 0xDA4 JUMP JUMPDEST POP POP POP JUMP JUMPDEST JUMPDEST DUP2 DUP2 LT ISZERO PUSH2 0xE05 JUMPI PUSH2 0xDFA PUSH1 0x0 DUP3 PUSH2 0xDCE JUMP JUMPDEST PUSH1 0x1 DUP2 ADD SWAP1 POP PUSH2 0xDE7 JUMP JUMPDEST POP POP JUMP JUMPDEST PUSH1 0x1F DUP3 GT ISZERO PUSH2 0xE4A JUMPI PUSH2 0xE1B DUP2 PUSH2 0xCEA JUMP JUMPDEST PUSH2 0xE24 DUP5 PUSH2 0xCFF JUMP JUMPDEST DUP2 ADD PUSH1 0x20 DUP6 LT ISZERO PUSH2 0xE33 JUMPI DUP2 SWAP1 POP JUMPDEST PUSH2 0xE47 PUSH2 0xE3F DUP6 PUSH2 0xCFF JUMP JUMPDEST DUP4 ADD DUP3 PUSH2 0xDE6 JUMP JUMPDEST POP POP JUMPDEST POP POP POP JUMP JUMPDEST PUSH1 0x0 DUP3 DUP3 SHR SWAP1 POP SWAP3 SWAP2 POP POP JUMP JUMPDEST PUSH1 0x0 PUSH2 0xE6D PUSH1 0x0 NOT DUP5 PUSH1 0x8 MUL PUSH2 0xE4F JUMP JUMPDEST NOT DUP1 DUP4 AND SWAP2 POP POP SWAP3 SWAP2 POP POP JUMP JUMPDEST PUSH1 0x0 PUSH2 0xE86 DUP4 DUP4 PUSH2 0xE5C JUMP JUMPDEST SWAP2 POP DUP3 PUSH1 0x2 MUL DUP3 OR SWAP1 POP SWAP3 SWAP2 POP POP JUMP JUMPDEST PUSH2 0xE9F DUP3 PUSH2 0x86D JUMP JUMPDEST PUSH8 0xFFFFFFFFFFFFFFFF DUP2 GT ISZERO PUSH2 0xEB8 JUMPI PUSH2 0xEB7 PUSH2 0xA0A JUMP JUMPDEST JUMPDEST PUSH2 0xEC2 DUP3 SLOAD PUSH2 0xC56 JUMP JUMPDEST PUSH2 0xECD DUP3 DUP3 DUP6 PUSH2 0xE09 JUMP JUMPDEST PUSH1 0x0 PUSH1 0x20 SWAP1 POP PUSH1 0x1F DUP4 GT PUSH1 0x1 DUP2 EQ PUSH2 0xF00 JUMPI PUSH1 0x0 DUP5 ISZERO PUSH2 0xEEE JUMPI DUP3 DUP8 ADD MLOAD SWAP1 POP JUMPDEST PUSH2 0xEF8 DUP6 DUP3 PUSH2 0xE7A JUMP JUMPDEST DUP7 SSTORE POP PUSH2 0xF60 JUMP JUMPDEST PUSH1 0x1F NOT DUP5 AND PUSH2 0xF0E DUP7 PUSH2 0xCEA JUMP JUMPDEST PUSH1 0x0 JUMPDEST DUP3 DUP2 LT ISZERO PUSH2 0xF36 JUMPI DUP5 DUP10 ADD MLOAD DUP3 SSTORE PUSH1 0x1 DUP3 ADD SWAP2 POP PUSH1 0x20 DUP6 ADD SWAP5 POP PUSH1 0x20 DUP2 ADD SWAP1 POP PUSH2 0xF11 JUMP JUMPDEST DUP7 DUP4 LT ISZERO PUSH2 0xF53 JUMPI DUP5 DUP10 ADD MLOAD PUSH2 0xF4F PUSH1 0x1F DUP10 AND DUP3 PUSH2 0xE5C JUMP JUMPDEST DUP4 SSTORE POP JUMPDEST PUSH1 0x1 PUSH1 0x2 DUP9 MUL ADD DUP9 SSTORE POP POP POP JUMPDEST POP POP POP POP POP POP JUMP JUMPDEST PUSH32 0x496E76616C696420636F6D706C61696E74204944000000000000000000000000 PUSH1 0x0 DUP3 ADD MSTORE POP JUMP JUMPDEST PUSH1 0x0 PUSH2 0xF9E PUSH1 0x14 DUP4 PUSH2 0x878 JUMP JUMPDEST SWAP2 POP PUSH2 0xFA9 DUP3 PUSH2 0xF68 JUMP JUMPDEST PUSH1 0x20 DUP3 ADD SWAP1 POP SWAP2 SWAP1 POP JUMP JUMPDEST PUSH1 0x0 PUSH1 0x20 DUP3 ADD SWAP1 POP DUP2 DUP2 SUB PUSH1 0x0 DUP4 ADD MSTORE PUSH2 0xFCD DUP2 PUSH2 0xF91 JUMP JUMPDEST SWAP1 POP SWAP2 SWAP1 POP JUMP INVALID LOG2 PUSH5 0x6970667358 0x22 SLT KECCAK256 AND 0xCB 0xE8 EXP CALLCODE PUSH3 0x4671F5 0xE1 PUSH19 0x1D6357FD9479A5CB7BCC04DC01020237F5B04F SWAP8 0x23 PUSH5 0x736F6C6343 STOP ADDMOD EQ STOP CALLER "},"methodIdentifiers":{"complaints(uint256)":"7e69e912","getComplaint(uint256)":"dee8ae43","submitComplaint(string,string,string,string)":"852bef8e","totalComplaints()":"a886b398"}}}}}