{
  "_format": "hh-sol-artifact-1",
  "contractName": "ComplaintNFT",
  "sourceName": "contracts/ComplaintNFT.sol",
  "abi": [
    {
      "inputs": [],
      "stateMutability": "nonpayable",
      "type": "constructor"
    },
    {
      "inputs": [],
      "name": "AccessControlBadConfirmation",
      "type": "error"
    },
    {
      "inputs": [
        {
          "internalType": "address",
          "name": "account",
          "type": "address"
        },
        {
          "internalType": "bytes32",
          "name": "neededRole",
          "type": "bytes32"
        }
      ],
      "name": "AccessControlUnauthorizedAccount",
      "type": "error"
    },
    {
      "inputs": [
        {
          "internalType": "address",
          "name": "sender",
          "type": "address"
        },
        {
          "internalType": "uint256",
          "name": "tokenId",
          "type": "uint256"
        },
        {
          "internalType": "address",
          "name": "owner",
          "type": "address"
        }
      ],
      "name": "ERC721IncorrectOwner",
      "type": "error"
    },
    {
      "inputs": [
        {
          "internalType": "address",
          "name": "operator",
          "type": "address"
        },
        {
          "internalType": "uint256",
          "name": "tokenId",
          "type": "uint256"
        }
      ],
      "name": "ERC721InsufficientApproval",
      "type": "error"
    },
    {
      "inputs": [
        {
          "internalType": "address",
          "name": "approver",
          "type": "address"
        }
      ],
      "name": "ERC721InvalidApprover",
      "type": "error"
    },
    {
      "inputs": [
        {
          "internalType": "address",
          "name": "operator",
          "type": "address"
        }
      ],
      "name": "ERC721InvalidOperator",
      "type": "error"
    },
    {
      "inputs": [
        {
          "internalType": "address",
          "name": "owner",
          "type": "address"
        }
      ],
      "name": "ERC721InvalidOwner",
      "type": "error"
    },
    {
      "inputs": [
        {
          "internalType": "address",
          "name": "receiver",
          "type": "address"
        }
      ],
      "name": "ERC721InvalidReceiver",
      "type": "error"
    },
    {
      "inputs": [
        {
          "internalType": "address",
          "name": "sender",
          "type": "address"
        }
      ],
      "name": "ERC721InvalidSender",
      "type": "error"
    },
    {
      "inputs": [
        {
          "internalType": "uint256",
          "name": "tokenId",
          "type": "uint256"
        }
      ],
      "name": "ERC721NonexistentToken",
      "type": "error"
    },
    {
      "anonymous": false,
      "inputs": [
        {
          "indexed": true,
          "internalType": "address",
          "name": "owner",
          "type": "address"
        },
        {
          "indexed": true,
          "internalType": "address",
          "name": "approved",
          "type": "address"
        },
        {
          "indexed": true,
          "internalType": "uint256",
          "name": "tokenId",
          "type": "uint256"
        }
      ],
      "name": "Approval",
      "type": "event"
    },
    {
      "anonymous": false,
      "inputs": [
        {
          "indexed": true,
          "internalType": "address",
          "name": "owner",
          "type": "address"
        },
        {
          "indexed": true,
          "internalType": "address",
          "name": "operator",
          "type": "address"
        },
        {
          "indexed": false,
          "internalType": "bool",
          "name": "approved",
          "type": "bool"
        }
      ],
      "name": "ApprovalForAll",
      "type": "event"
    },
    {
      "anonymous": false,
      "inputs": [
        {
          "indexed": true,
          "internalType": "uint256",
          "name": "tokenId",
          "type": "uint256"
        },
        {
          "indexed": false,
          "internalType": "string",
          "name": "name",
          "type": "string"
        },
        {
          "indexed": false,
          "internalType": "string",
          "name": "location",
          "type": "string"
        },
        {
          "indexed": false,
          "internalType": "string",
          "name": "description",
          "type": "string"
        }
      ],
      "name": "ComplaintCreated",
      "type": "event"
    },
    {
      "anonymous": false,
      "inputs": [
        {
          "indexed": true,
          "internalType": "uint256",
          "name": "tokenId",
          "type": "uint256"
        },
        {
          "indexed": false,
          "internalType": "enum ComplaintNFT.Status",
          "name": "newStatus",
          "type": "uint8"
        }
      ],
      "name": "ComplaintStatusUpdated",
      "type": "event"
    },
    {
      "anonymous": false,
      "inputs": [
        {
          "indexed": true,
          "internalType": "bytes32",
          "name": "role",
          "type": "bytes32"
        },
        {
          "indexed": true,
          "internalType": "bytes32",
          "name": "previousAdminRole",
          "type": "bytes32"
        },
        {
          "indexed": true,
          "internalType": "bytes32",
          "name": "newAdminRole",
          "type": "bytes32"
        }
      ],
      "name": "RoleAdminChanged",
      "type": "event"
    },
    {
      "anonymous": false,
      "inputs": [
        {
          "indexed": true,
          "internalType": "bytes32",
          "name": "role",
          "type": "bytes32"
        },
        {
          "indexed": true,
          "internalType": "address",
          "name": "account",
          "type": "address"
        },
        {
          "indexed": true,
          "internalType": "address",
          "name": "sender",
          "type": "address"
        }
      ],
      "name": "RoleGranted",
      "type": "event"
    },
    {
      "anonymous": false,
      "inputs": [
        {
          "indexed": true,
          "internalType": "bytes32",
          "name": "role",
          "type": "bytes32"
        },
        {
          "indexed": true,
          "internalType": "address",
          "name": "account",
          "type": "address"
        },
        {
          "indexed": true,
          "internalType": "address",
          "name": "sender",
          "type": "address"
        }
      ],
      "name": "RoleRevoked",
      "type": "event"
    },
    {
      "anonymous": false,
      "inputs": [
        {
          "indexed": true,
          "internalType": "address",
          "name": "from",
          "type": "address"
        },
        {
          "indexed": true,
          "internalType": "address",
          "name": "to",
          "type": "address"
        },
        {
          "indexed": true,
          "internalType": "uint256",
          "name": "tokenId",
          "type": "uint256"
        }
      ],
      "name": "Transfer",
      "type": "event"
    },
    {
      "inputs": [],
      "name": "DEFAULT_ADMIN_ROLE",
      "outputs": [
        {
          "internalType": "bytes32",
          "name": "",
          "type": "bytes32"
        }
      ],
      "stateMutability": "view",
      "type": "function"
    },
    {
      "inputs": [],
      "name": "WORKER_ROLE",
      "outputs": [
        {
          "internalType": "bytes32",
          "name": "",
          "type": "bytes32"
        }
      ],
      "stateMutability": "view",
      "type": "function"
    },
    {
      "inputs": [
        {
          "internalType": "address",
          "name": "to",
          "type": "address"
        },
        {
          "internalType": "uint256",
          "name": "tokenId",
          "type": "uint256"
        }
      ],
      "name": "approve",
      "outputs": [],
      "stateMutability": "nonpayable",
      "type": "function"
    },
    {
      "inputs": [
        {
          "internalType": "address",
          "name": "owner",
          "type": "address"
        }
      ],
      "name": "balanceOf",
      "outputs": [
        {
          "internalType": "uint256",
          "name": "",
          "type": "uint256"
        }
      ],
      "stateMutability": "view",
      "type": "function"
    },
    {
      "inputs": [
        {
          "internalType": "uint256",
          "name": "",
          "type": "uint256"
        }
      ],
      "name": "complaints",
      "outputs": [
        {
          "internalType": "string",
          "name": "name",
          "type": "string"
        },
        {
          "internalType": "string",
          "name": "phone",
          "type": "string"
        },
        {
          "internalType": "string",
          "name": "location",
          "type": "string"
        },
        {
          "internalType": "string",
          "name": "description",
          "type": "string"
        },
        {
          "internalType": "enum ComplaintNFT.Status",
          "name": "status",
          "type": "uint8"
        },
        {
          "internalType": "uint256",
          "name": "timestamp",
          "type": "uint256"
        }
      ],
      "stateMutability": "view",
      "type": "function"
    },
    {
      "inputs": [
        {
          "internalType": "string",
          "name": "name",
          "type": "string"
        },
        {
          "internalType": "string",
          "name": "phone",
          "type": "string"
        },
        {
          "internalType": "string",
          "name": "location",
          "type": "string"
        },
        {
          "internalType": "string",
          "name": "description",
          "type": "string"
        }
      ],
      "name": "createComplaint",
      "outputs": [
        {
          "internalType": "uint256",
          "name": "",
          "type": "uint256"
        }
      ],
      "stateMutability": "nonpayable",
      "type": "function"
    },
    {
      "inputs": [
        {
          "internalType": "uint256",
          "name": "tokenId",
          "type": "uint256"
        }
      ],
      "name": "getApproved",
      "outputs": [
        {
          "internalType": "address",
          "name": "",
          "type": "address"
        }
      ],
      "stateMutability": "view",
      "type": "function"
    },
    {
      "inputs": [
        {
          "internalType": "uint256",
          "name": "tokenId",
          "type": "uint256"
        }
      ],
      "name": "getComplaint",
      "outputs": [
        {
          "internalType": "string",
          "name": "name",
          "type": "string"
        },
        {
          "internalType": "string",
          "name": "phone",
          "type": "string"
        },
        {
          "internalType": "string",
          "name": "location",
          "type": "string"
        },
        {
          "internalType": "string",
          "name": "description",
          "type": "string"
        },
        {
          "internalType": "enum ComplaintNFT.Status",
          "name": "status",
          "type": "uint8"
        },
        {
          "internalType": "uint256",
          "name": "timestamp",
          "type": "uint256"
        }
      ],
      "stateMutability": "view",
      "type": "function"
    },
    {
      "inputs": [
        {
          "internalType": "bytes32",
          "name": "role",
          "type": "bytes32"
        }
      ],
      "name": "getRoleAdmin",
      "outputs": [
        {
          "internalType": "bytes32",
          "name": "",
          "type": "bytes32"
        }
      ],
      "stateMutability": "view",
      "type": "function"
    },
    {
      "inputs": [
        {
          "internalType": "bytes32",
          "name": "role",
          "type": "bytes32"
        },
        {
          "internalType": "address",
          "name": "account",
          "type": "address"
        }
      ],
      "name": "grantRole",
      "outputs": [],
      "stateMutability": "nonpayable",
      "type": "function"
    },
    {
      "inputs": [
        {
          "internalType": "bytes32",
          "name": "role",
          "type": "bytes32"
        },
        {
          "internalType": "address",
          "name": "account",
          "type": "address"
        }
      ],
      "name": "hasRole",
      "outputs": [
        {
          "internalType": "bool",
          "name": "",
          "type": "bool"
        }
      ],
      "stateMutability": "view",
      "type": "function"
    },
    {
      "inputs": [
        {
          "internalType": "address",
          "name": "owner",
          "type": "address"
        },
        {
          "internalType": "address",
          "name": "operator",
          "type": "address"
        }
      ],
      "name": "isApprovedForAll",
      "outputs": [
        {
          "internalType": "bool",
          "name": "",
          "type": "bool"
        }
      ],
      "stateMutability": "view",
      "type": "function"
    },
    {
      "inputs": [],
      "name": "name",
      "outputs": [
        {
          "internalType": "string",
          "name": "",
          "type": "string"
        }
      ],
      "stateMutability": "view",
      "type": "function"
    },
    {
      "inputs": [
        {
          "internalType": "uint256",
          "name": "tokenId",
          "type": "uint256"
        }
      ],
      "name": "ownerOf",
      "outputs": [
        {
          "internalType": "address",
          "name": "",
          "type": "address"
        }
      ],
      "stateMutability": "view",
      "type": "function"
    },
    {
      "inputs": [
        {
          "internalType": "bytes32",
          "name": "role",
          "type": "bytes32"
        },
        {
          "internalType": "address",
          "name": "callerConfirmation",
          "type": "address"
        }
      ],
      "name": "renounceRole",
      "outputs": [],
      "stateMutability": "nonpayable",
      "type": "function"
    },
    {
      "inputs": [
        {
          "internalType": "bytes32",
          "name": "role",
          "type": "bytes32"
        },
        {
          "internalType": "address",
          "name": "account",
          "type": "address"
        }
      ],
      "name": "revokeRole",
      "outputs": [],
      "stateMutability": "nonpayable",
      "type": "function"
    },
    {
      "inputs": [
        {
          "internalType": "address",
          "name": "from",
          "type": "address"
        },
        {
          "internalType": "address",
          "name": "to",
          "type": "address"
        },
        {
          "internalType": "uint256",
          "name": "tokenId",
          "type": "uint256"
        }
      ],
      "name": "safeTransferFrom",
      "outputs": [],
      "stateMutability": "nonpayable",
      "type": "function"
    },
    {
      "inputs": [
        {
          "internalType": "address",
          "name": "from",
          "type": "address"
        },
        {
          "internalType": "address",
          "name": "to",
          "type": "address"
        },
        {
          "internalType": "uint256",
          "name": "tokenId",
          "type": "uint256"
        },
        {
          "internalType": "bytes",
          "name": "data",
          "type": "bytes"
        }
      ],
      "name": "safeTransferFrom",
      "outputs": [],
      "stateMutability": "nonpayable",
      "type": "function"
    },
    {
      "inputs": [
        {
          "internalType": "address",
          "name": "operator",
          "type": "address"
        },
        {
          "internalType": "bool",
          "name": "approved",
          "type": "bool"
        }
      ],
      "name": "setApprovalForAll",
      "outputs": [],
      "stateMutability": "nonpayable",
      "type": "function"
    },
    {
      "inputs": [
        {
          "internalType": "bytes4",
          "name": "interfaceId",
          "type": "bytes4"
        }
      ],
      "name": "supportsInterface",
      "outputs": [
        {
          "internalType": "bool",
          "name": "",
          "type": "bool"
        }
      ],
      "stateMutability": "view",
      "type": "function"
    },
    {
      "inputs": [],
      "name": "symbol",
      "outputs": [
        {
          "internalType": "string",
          "name": "",
          "type": "string"
        }
      ],
      "stateMutability": "view",
      "type": "function"
    },
    {
      "inputs": [
        {
          "internalType": "uint256",
          "name": "tokenId",
          "type": "uint256"
        }
      ],
      "name": "tokenURI",
      "outputs": [
        {
          "internalType": "string",
          "name": "",
          "type": "string"
        }
      ],
      "stateMutability": "view",
      "type": "function"
    },
    {
      "inputs": [
        {
          "internalType": "address",
          "name": "from",
          "type": "address"
        },
        {
          "internalType": "address",
          "name": "to",
          "type": "address"
        },
        {
          "internalType": "uint256",
          "name": "tokenId",
          "type": "uint256"
        }
      ],
      "name": "transferFrom",
      "outputs": [],
      "stateMutability": "nonpayable",
      "type": "function"
    },
    {
      "inputs": [
        {
          "internalType": "uint256",
          "name": "tokenId",
          "type": "uint256"
        },
        {
          "internalType": "enum ComplaintNFT.Status",
          "name": "newStatus",
          "type": "uint8"
        }
      ],
      "name": "updateStatus",
      "outputs": [],
      "stateMutability": "nonpayable",
      "type": "function"
    }
  ],
  "bytecode": "0x60806040523480156200001157600080fd5b506040518060400160405280600e81526020017f4369766963436f6d706c61696e740000000000000000000000000000000000008152506040518060400160405280600281526020017f434300000000000000000000000000000000000000000000000000000000000081525081600090816200008f9190620004e4565b508060019081620000a19190620004e4565b505050620000b96000801b33620000f360201b60201c565b50620000ec7ff1b411d6abb365480ac902cc153c45e9ded5847a2265ce6d01945d253edb6bc733620000f360201b60201c565b50620005cb565b6000620001078383620001f760201b60201c565b620001ec5760016006600085815260200190815260200160002060000160008473ffffffffffffffffffffffffffffffffffffffff1673ffffffffffffffffffffffffffffffffffffffff16815260200190815260200160002060006101000a81548160ff021916908315150217905550620001886200026260201b60201c565b73ffffffffffffffffffffffffffffffffffffffff168273ffffffffffffffffffffffffffffffffffffffff16847f2f8788117e7eff1d82e926ec794901d17c78024a50270940304540a733656f0d60405160405180910390a460019050620001f1565b600090505b92915050565b60006006600084815260200190815260200160002060000160008373ffffffffffffffffffffffffffffffffffffffff1673ffffffffffffffffffffffffffffffffffffffff16815260200190815260200160002060009054906101000a900460ff16905092915050565b600033905090565b600081519050919050565b7f4e487b7100000000000000000000000000000000000000000000000000000000600052604160045260246000fd5b7f4e487b7100000000000000000000000000000000000000000000000000000000600052602260045260246000fd5b60006002820490506001821680620002ec57607f821691505b602082108103620003025762000301620002a4565b5b50919050565b60008190508160005260206000209050919050565b60006020601f8301049050919050565b600082821b905092915050565b6000600883026200036c7fffffffffffffffffffffffffffffffffffffffffffffffffffffffffffffffff826200032d565b6200037886836200032d565b95508019841693508086168417925050509392505050565b6000819050919050565b6000819050919050565b6000620003c5620003bf620003b98462000390565b6200039a565b62000390565b9050919050565b6000819050919050565b620003e183620003a4565b620003f9620003f082620003cc565b8484546200033a565b825550505050565b600090565b6200041062000401565b6200041d818484620003d6565b505050565b5b8181101562000445576200043960008262000406565b60018101905062000423565b5050565b601f82111562000494576200045e8162000308565b62000469846200031d565b8101602085101562000479578190505b6200049162000488856200031d565b83018262000422565b50505b505050565b600082821c905092915050565b6000620004b96000198460080262000499565b1980831691505092915050565b6000620004d48383620004a6565b9150826002028217905092915050565b620004ef826200026a565b67ffffffffffffffff8111156200050b576200050a62000275565b5b620005178254620002d3565b6200052482828562000449565b600060209050601f8311600181146200055c576000841562000547578287015190505b620005538582620004c6565b865550620005c3565b601f1984166200056c8662000308565b60005b8281101562000596578489015182556001820191506020850194506020810190506200056f565b86831015620005b65784890151620005b2601f891682620004a6565b8355505b6001600288020188555050505b505050505050565b61340080620005db6000396000f3fe608060405234801561001057600080fd5b50600436106101585760003560e01c80636352211e116100c3578063a22cb4651161007c578063a22cb46514610402578063b88d4fde1461041e578063c87b56dd1461043a578063d547741f1461046a578063dee8ae4314610486578063e985e9c5146104bb57610158565b80636352211e1461030157806370a08231146103315780637e69e9121461036157806391d148541461039657806395d89b41146103c6578063a217fddf146103e457610158565b8063248a9ca311610115578063248a9ca3146102435780632f2ff15d1461027357806336568abe1461028f5780633a1b3d31146102ab57806342842e0e146102c7578063634252dc146102e357610158565b806301ffc9a71461015d5780630504e0661461018d57806306fdde03146101bd578063081812fc146101db578063095ea7b31461020b57806323b872dd14610227575b600080fd5b610177600480360381019061017291906124bb565b6104eb565b6040516101849190612503565b60405180910390f35b6101a760048036038101906101a29190612664565b6104fd565b6040516101b49190612754565b60405180910390f35b6101c5610653565b6040516101d291906127ee565b60405180910390f35b6101f560048036038101906101f0919061283c565b6106e5565b60405161020291906128aa565b60405180910390f35b610225600480360381019061022091906128f1565b610701565b005b610241600480360381019061023c9190612931565b610717565b005b61025d600480360381019061025891906129ba565b610819565b60405161026a91906129f6565b60405180910390f35b61028d60048036038101906102889190612a11565b610839565b005b6102a960048036038101906102a49190612a11565b61085b565b005b6102c560048036038101906102c09190612a76565b6108d6565b005b6102e160048036038101906102dc9190612931565b6109f2565b005b6102eb610a12565b6040516102f891906129f6565b60405180910390f35b61031b6004803603810190610316919061283c565b610a36565b60405161032891906128aa565b60405180910390f35b61034b60048036038101906103469190612ab6565b610a48565b6040516103589190612754565b60405180910390f35b61037b6004803603810190610376919061283c565b610b02565b60405161038d96959493929190612b5a565b60405180910390f35b6103b060048036038101906103ab9190612a11565b610d6b565b6040516103bd9190612503565b60405180910390f35b6103ce610dd6565b6040516103db91906127ee565b60405180910390f35b6103ec610e68565b6040516103f991906129f6565b60405180910390f35b61041c60048036038101906104179190612c03565b610e6f565b005b61043860048036038101906104339190612ce4565b610e85565b005b610454600480360381019061044f919061283c565b610eaa565b60405161046191906127ee565b60405180910390f35b610484600480360381019061047f9190612a11565b610f13565b005b6104a0600480360381019061049b919061283c565b610f35565b6040516104b296959493929190612b5a565b60405180910390f35b6104d560048036038101906104d09190612d67565b611298565b6040516104e29190612503565b60405180910390f35b60006104f68261132c565b9050919050565b6000806007600081548092919061051390612dd6565b91905055905061052333826113a6565b6040518060c001604052808781526020018681526020018581526020018481526020016000600281111561055a57610559612ae3565b5b81526020014281525060086000838152602001908152602001600020600082015181600001908161058b919061302a565b5060208201518160010190816105a1919061302a565b5060408201518160020190816105b7919061302a565b5060608201518160030190816105cd919061302a565b5060808201518160040160006101000a81548160ff021916908360028111156105f9576105f8612ae3565b5b021790555060a08201518160050155905050807f8a29841bb84f211a12aece28185c1718d23ed9aacf2148826a04967d163f731587868660405161063f939291906130fc565b60405180910390a280915050949350505050565b60606000805461066290612e4d565b80601f016020809104026020016040519081016040528092919081815260200182805461068e90612e4d565b80156106db5780601f106106b0576101008083540402835291602001916106db565b820191906000526020600020905b8154815290600101906020018083116106be57829003601f168201915b5050505050905090565b60006106f0826113c4565b506106fa8261144c565b9050919050565b610713828261070e611489565b611491565b5050565b600073ffffffffffffffffffffffffffffffffffffffff168273ffffffffffffffffffffffffffffffffffffffff16036107895760006040517f64a0ae9200000000000000000000000000000000000000000000000000000000815260040161078091906128aa565b60405180910390fd5b600061079d8383610798611489565b6114a3565b90508373ffffffffffffffffffffffffffffffffffffffff168173ffffffffffffffffffffffffffffffffffffffff1614610813578382826040517f64283d7b00000000000000000000000000000000000000000000000000000000815260040161080a93929190613148565b60405180910390fd5b50505050565b600060066000838152602001908152602001600020600101549050919050565b61084282610819565b61084b816116bd565b61085583836116d1565b50505050565b610863611489565b73ffffffffffffffffffffffffffffffffffffffff168173ffffffffffffffffffffffffffffffffffffffff16146108c7576040517f6697b23200000000000000000000000000000000000000000000000000000000815260040160405180910390fd5b6108d182826117c3565b505050565b7ff1b411d6abb365480ac902cc153c45e9ded5847a2265ce6d01945d253edb6bc7610900816116bd565b600073ffffffffffffffffffffffffffffffffffffffff1661092184610a36565b73ffffffffffffffffffffffffffffffffffffffff1603610977576040517f08c379a000000000000000000000000000000000000000000000000000000000815260040161096e906131cb565b60405180910390fd5b816008600085815260200190815260200160002060040160006101000a81548160ff021916908360028111156109b0576109af612ae3565b5b0217905550827f8d69635f6d49a73328e953b059903843f78f440c7e2ea3b0527732de64bc22b9836040516109e591906131eb565b60405180910390a2505050565b610a0d83838360405180602001604052806000815250610e85565b505050565b7ff1b411d6abb365480ac902cc153c45e9ded5847a2265ce6d01945d253edb6bc781565b6000610a41826113c4565b9050919050565b60008073ffffffffffffffffffffffffffffffffffffffff168273ffffffffffffffffffffffffffffffffffffffff1603610abb5760006040517f89c62b64000000000000000000000000000000000000000000000000000000008152600401610ab291906128aa565b60405180910390fd5b600360008373ffffffffffffffffffffffffffffffffffffffff1673ffffffffffffffffffffffffffffffffffffffff168152602001908152602001600020549050919050565b6008602052806000526040600020600091509050806000018054610b2590612e4d565b80601f0160208091040260200160405190810160405280929190818152602001828054610b5190612e4d565b8015610b9e5780601f10610b7357610100808354040283529160200191610b9e565b820191906000526020600020905b815481529060010190602001808311610b8157829003601f168201915b505050505090806001018054610bb390612e4d565b80601f0160208091040260200160405190810160405280929190818152602001828054610bdf90612e4d565b8015610c2c5780601f10610c0157610100808354040283529160200191610c2c565b820191906000526020600020905b815481529060010190602001808311610c0f57829003601f168201915b505050505090806002018054610c4190612e4d565b80601f0160208091040260200160405190810160405280929190818152602001828054610c6d90612e4d565b8015610cba5780601f10610c8f57610100808354040283529160200191610cba565b820191906000526020600020905b815481529060010190602001808311610c9d57829003601f168201915b505050505090806003018054610ccf90612e4d565b80601f0160208091040260200160405190810160405280929190818152602001828054610cfb90612e4d565b8015610d485780601f10610d1d57610100808354040283529160200191610d48565b820191906000526020600020905b815481529060010190602001808311610d2b57829003601f168201915b5050505050908060040160009054906101000a900460ff16908060050154905086565b60006006600084815260200190815260200160002060000160008373ffffffffffffffffffffffffffffffffffffffff1673ffffffffffffffffffffffffffffffffffffffff16815260200190815260200160002060009054906101000a900460ff16905092915050565b606060018054610de590612e4d565b80601f0160208091040260200160405190810160405280929190818152602001828054610e1190612e4d565b8015610e5e5780601f10610e3357610100808354040283529160200191610e5e565b820191906000526020600020905b815481529060010190602001808311610e4157829003601f168201915b5050505050905090565b6000801b81565b610e81610e7a611489565b83836118b6565b5050565b610e90848484610717565b610ea4610e9b611489565b85858585611a25565b50505050565b6060610eb5826113c4565b506000610ec0611bd6565b90506000815111610ee05760405180602001604052806000815250610f0b565b80610eea84611bed565b604051602001610efb929190613242565b6040516020818303038152906040525b915050919050565b610f1c82610819565b610f25816116bd565b610f2f83836117c3565b50505050565b606080606080600080600073ffffffffffffffffffffffffffffffffffffffff16610f5f88610a36565b73ffffffffffffffffffffffffffffffffffffffff1603610fb5576040517f08c379a0000000000000000000000000000000000000000000000000000000008152600401610fac906131cb565b60405180910390fd5b6000600860008981526020019081526020016000206040518060c0016040529081600082018054610fe590612e4d565b80601f016020809104026020016040519081016040528092919081815260200182805461101190612e4d565b801561105e5780601f106110335761010080835404028352916020019161105e565b820191906000526020600020905b81548152906001019060200180831161104157829003601f168201915b5050505050815260200160018201805461107790612e4d565b80601f01602080910402602001604051908101604052809291908181526020018280546110a390612e4d565b80156110f05780601f106110c5576101008083540402835291602001916110f0565b820191906000526020600020905b8154815290600101906020018083116110d357829003601f168201915b5050505050815260200160028201805461110990612e4d565b80601f016020809104026020016040519081016040528092919081815260200182805461113590612e4d565b80156111825780601f1061115757610100808354040283529160200191611182565b820191906000526020600020905b81548152906001019060200180831161116557829003601f168201915b5050505050815260200160038201805461119b90612e4d565b80601f01602080910402602001604051908101604052809291908181526020018280546111c790612e4d565b80156112145780601f106111e957610100808354040283529160200191611214565b820191906000526020600020905b8154815290600101906020018083116111f757829003601f168201915b505050505081526020016004820160009054906101000a900460ff16600281111561124257611241612ae3565b5b600281111561125457611253612ae3565b5b81526020016005820154815250509050806000015181602001518260400151836060015184608001518560a001519650965096509650965096505091939550919395565b6000600560008473ffffffffffffffffffffffffffffffffffffffff1673ffffffffffffffffffffffffffffffffffffffff16815260200190815260200160002060008373ffffffffffffffffffffffffffffffffffffffff1673ffffffffffffffffffffffffffffffffffffffff16815260200190815260200160002060009054906101000a900460ff16905092915050565b60007f7965db0b000000000000000000000000000000000000000000000000000000007bffffffffffffffffffffffffffffffffffffffffffffffffffffffff1916827bffffffffffffffffffffffffffffffffffffffffffffffffffffffff1916148061139f575061139e82611cbb565b5b9050919050565b6113c0828260405180602001604052806000815250611d9d565b5050565b6000806113d083611dc1565b9050600073ffffffffffffffffffffffffffffffffffffffff168173ffffffffffffffffffffffffffffffffffffffff160361144357826040517f7e27328900000000000000000000000000000000000000000000000000000000815260040161143a9190612754565b60405180910390fd5b80915050919050565b60006004600083815260200190815260200160002060009054906101000a900473ffffffffffffffffffffffffffffffffffffffff169050919050565b600033905090565b61149e8383836001611dfe565b505050565b6000806114af84611dc1565b9050600073ffffffffffffffffffffffffffffffffffffffff168373ffffffffffffffffffffffffffffffffffffffff16146114f1576114f0818486611fc3565b5b600073ffffffffffffffffffffffffffffffffffffffff168173ffffffffffffffffffffffffffffffffffffffff161461158257611533600085600080611dfe565b6001600360008373ffffffffffffffffffffffffffffffffffffffff1673ffffffffffffffffffffffffffffffffffffffff168152602001908152602001600020600082825403925050819055505b600073ffffffffffffffffffffffffffffffffffffffff168573ffffffffffffffffffffffffffffffffffffffff1614611605576001600360008773ffffffffffffffffffffffffffffffffffffffff1673ffffffffffffffffffffffffffffffffffffffff168152602001908152602001600020600082825401925050819055505b846002600086815260200190815260200160002060006101000a81548173ffffffffffffffffffffffffffffffffffffffff021916908373ffffffffffffffffffffffffffffffffffffffff160217905550838573ffffffffffffffffffffffffffffffffffffffff168273ffffffffffffffffffffffffffffffffffffffff167fddf252ad1be2c89b69c2b068fc378daa952ba7f163c4a11628f55a4df523b3ef60405160405180910390a4809150509392505050565b6116ce816116c9611489565b612087565b50565b60006116dd8383610d6b565b6117b85760016006600085815260200190815260200160002060000160008473ffffffffffffffffffffffffffffffffffffffff1673ffffffffffffffffffffffffffffffffffffffff16815260200190815260200160002060006101000a81548160ff021916908315150217905550611755611489565b73ffffffffffffffffffffffffffffffffffffffff168273ffffffffffffffffffffffffffffffffffffffff16847f2f8788117e7eff1d82e926ec794901d17c78024a50270940304540a733656f0d60405160405180910390a4600190506117bd565b600090505b92915050565b60006117cf8383610d6b565b156118ab5760006006600085815260200190815260200160002060000160008473ffffffffffffffffffffffffffffffffffffffff1673ffffffffffffffffffffffffffffffffffffffff16815260200190815260200160002060006101000a81548160ff021916908315150217905550611848611489565b73ffffffffffffffffffffffffffffffffffffffff168273ffffffffffffffffffffffffffffffffffffffff16847ff6391f5c32d9c69d2a47ea670b442974b53935d1edc7fd64eb21e047a839171b60405160405180910390a4600190506118b0565b600090505b92915050565b600073ffffffffffffffffffffffffffffffffffffffff168273ffffffffffffffffffffffffffffffffffffffff160361192757816040517f5b08ba1800000000000000000000000000000000000000000000000000000000815260040161191e91906128aa565b60405180910390fd5b80600560008573ffffffffffffffffffffffffffffffffffffffff1673ffffffffffffffffffffffffffffffffffffffff16815260200190815260200160002060008473ffffffffffffffffffffffffffffffffffffffff1673ffffffffffffffffffffffffffffffffffffffff16815260200190815260200160002060006101000a81548160ff0219169083151502179055508173ffffffffffffffffffffffffffffffffffffffff168373ffffffffffffffffffffffffffffffffffffffff167f17307eab39ab6107e8899845ad3d59bd9653f200f220920489ca2b5937696c3183604051611a189190612503565b60405180910390a3505050565b60008373ffffffffffffffffffffffffffffffffffffffff163b1115611bcf578273ffffffffffffffffffffffffffffffffffffffff1663150b7a02868685856040518563ffffffff1660e01b8152600401611a8494939291906132bb565b6020604051808303816000875af1925050508015611ac057506040513d601f19601f82011682018060405250810190611abd919061331c565b60015b611b44573d8060008114611af0576040519150601f19603f3d011682016040523d82523d6000602084013e611af5565b606091505b506000815103611b3c57836040517f64a0ae92000000000000000000000000000000000000000000000000000000008152600401611b3391906128aa565b60405180910390fd5b805181602001fd5b63150b7a0260e01b7bffffffffffffffffffffffffffffffffffffffffffffffffffffffff1916817bffffffffffffffffffffffffffffffffffffffffffffffffffffffff191614611bcd57836040517f64a0ae92000000000000000000000000000000000000000000000000000000008152600401611bc491906128aa565b60405180910390fd5b505b5050505050565b606060405180602001604052806000815250905090565b606060006001611bfc846120d8565b01905060008167ffffffffffffffff811115611c1b57611c1a612539565b5b6040519080825280601f01601f191660200182016040528015611c4d5781602001600182028036833780820191505090505b509050600082602001820190505b600115611cb0578080600190039150507f3031323334353637383961626364656600000000000000000000000000000000600a86061a8153600a8581611ca457611ca3613349565b5b04945060008503611c5b575b819350505050919050565b60007f80ac58cd000000000000000000000000000000000000000000000000000000007bffffffffffffffffffffffffffffffffffffffffffffffffffffffff1916827bffffffffffffffffffffffffffffffffffffffffffffffffffffffff19161480611d8657507f5b5e139f000000000000000000000000000000000000000000000000000000007bffffffffffffffffffffffffffffffffffffffffffffffffffffffff1916827bffffffffffffffffffffffffffffffffffffffffffffffffffffffff1916145b80611d965750611d958261222b565b5b9050919050565b611da78383612295565b611dbc611db2611489565b6000858585611a25565b505050565b60006002600083815260200190815260200160002060009054906101000a900473ffffffffffffffffffffffffffffffffffffffff169050919050565b8080611e375750600073ffffffffffffffffffffffffffffffffffffffff168273ffffffffffffffffffffffffffffffffffffffff1614155b15611f6b576000611e47846113c4565b9050600073ffffffffffffffffffffffffffffffffffffffff168373ffffffffffffffffffffffffffffffffffffffff1614158015611eb257508273ffffffffffffffffffffffffffffffffffffffff168173ffffffffffffffffffffffffffffffffffffffff1614155b8015611ec55750611ec38184611298565b155b15611f0757826040517fa9fbf51f000000000000000000000000000000000000000000000000000000008152600401611efe91906128aa565b60405180910390fd5b8115611f6957838573ffffffffffffffffffffffffffffffffffffffff168273ffffffffffffffffffffffffffffffffffffffff167f8c5be1e5ebec7d5bd14f71427d1e84f3dd0314c0f7b2291e5b200ac8c7c3b92560405160405180910390a45b505b836004600085815260200190815260200160002060006101000a81548173ffffffffffffffffffffffffffffffffffffffff021916908373ffffffffffffffffffffffffffffffffffffffff16021790555050505050565b611fce83838361238e565b61208257600073ffffffffffffffffffffffffffffffffffffffff168373ffffffffffffffffffffffffffffffffffffffff160361204357806040517f7e27328900000000000000000000000000000000000000000000000000000000815260040161203a9190612754565b60405180910390fd5b81816040517f177e802f000000000000000000000000000000000000000000000000000000008152600401612079929190613378565b60405180910390fd5b505050565b6120918282610d6b565b6120d45780826040517fe2517d3f0000000000000000000000000000000000000000000000000000000081526004016120cb9291906133a1565b60405180910390fd5b5050565b600080600090507a184f03e93ff9f4daa797ed6e38ed64bf6a1f0100000000000000008310612136577a184f03e93ff9f4daa797ed6e38ed64bf6a1f010000000000000000838161212c5761212b613349565b5b0492506040810190505b6d04ee2d6d415b85acef81000000008310612173576d04ee2d6d415b85acef8100000000838161216957612168613349565b5b0492506020810190505b662386f26fc1000083106121a257662386f26fc10000838161219857612197613349565b5b0492506010810190505b6305f5e10083106121cb576305f5e10083816121c1576121c0613349565b5b0492506008810190505b61271083106121f05761271083816121e6576121e5613349565b5b0492506004810190505b60648310612213576064838161220957612208613349565b5b0492506002810190505b600a8310612222576001810190505b80915050919050565b60007f01ffc9a7000000000000000000000000000000000000000000000000000000007bffffffffffffffffffffffffffffffffffffffffffffffffffffffff1916827bffffffffffffffffffffffffffffffffffffffffffffffffffffffff1916149050919050565b600073ffffffffffffffffffffffffffffffffffffffff168273ffffffffffffffffffffffffffffffffffffffff16036123075760006040517f64a0ae920000000000000000000000000000000000000000000000000000000081526004016122fe91906128aa565b60405180910390fd5b6000612315838360006114a3565b9050600073ffffffffffffffffffffffffffffffffffffffff168173ffffffffffffffffffffffffffffffffffffffff16146123895760006040517f73c6ac6e00000000000000000000000000000000000000000000000000000000815260040161238091906128aa565b60405180910390fd5b505050565b60008073ffffffffffffffffffffffffffffffffffffffff168373ffffffffffffffffffffffffffffffffffffffff161415801561244657508273ffffffffffffffffffffffffffffffffffffffff168473ffffffffffffffffffffffffffffffffffffffff16148061240757506124068484611298565b5b8061244557508273ffffffffffffffffffffffffffffffffffffffff1661242d8361144c565b73ffffffffffffffffffffffffffffffffffffffff16145b5b90509392505050565b6000604051905090565b600080fd5b600080fd5b60007fffffffff0000000000000000000000000000000000000000000000000000000082169050919050565b61249881612463565b81146124a357600080fd5b50565b6000813590506124b58161248f565b92915050565b6000602082840312156124d1576124d0612459565b5b60006124df848285016124a6565b91505092915050565b60008115159050919050565b6124fd816124e8565b82525050565b600060208201905061251860008301846124f4565b92915050565b600080fd5b600080fd5b6000601f19601f8301169050919050565b7f4e487b7100000000000000000000000000000000000000000000000000000000600052604160045260246000fd5b61257182612528565b810181811067ffffffffffffffff821117156125905761258f612539565b5b80604052505050565b60006125a361244f565b90506125af8282612568565b919050565b600067ffffffffffffffff8211156125cf576125ce612539565b5b6125d882612528565b9050602081019050919050565b82818337600083830152505050565b6000612607612602846125b4565b612599565b90508281526020810184848401111561262357612622612523565b5b61262e8482856125e5565b509392505050565b600082601f83011261264b5761264a61251e565b5b813561265b8482602086016125f4565b91505092915050565b6000806000806080858703121561267e5761267d612459565b5b600085013567ffffffffffffffff81111561269c5761269b61245e565b5b6126a887828801612636565b945050602085013567ffffffffffffffff8111156126c9576126c861245e565b5b6126d587828801612636565b935050604085013567ffffffffffffffff8111156126f6576126f561245e565b5b61270287828801612636565b925050606085013567ffffffffffffffff8111156127235761272261245e565b5b61272f87828801612636565b91505092959194509250565b6000819050919050565b61274e8161273b565b82525050565b60006020820190506127696000830184612745565b92915050565b600081519050919050565b600082825260208201905092915050565b60005b838110156127a957808201518184015260208101905061278e565b60008484015250505050565b60006127c08261276f565b6127ca818561277a565b93506127da81856020860161278b565b6127e381612528565b840191505092915050565b6000602082019050818103600083015261280881846127b5565b905092915050565b6128198161273b565b811461282457600080fd5b50565b60008135905061283681612810565b92915050565b60006020828403121561285257612851612459565b5b600061286084828501612827565b91505092915050565b600073ffffffffffffffffffffffffffffffffffffffff82169050919050565b600061289482612869565b9050919050565b6128a481612889565b82525050565b60006020820190506128bf600083018461289b565b92915050565b6128ce81612889565b81146128d957600080fd5b50565b6000813590506128eb816128c5565b92915050565b6000806040838503121561290857612907612459565b5b6000612916858286016128dc565b925050602061292785828601612827565b9150509250929050565b60008060006060848603121561294a57612949612459565b5b6000612958868287016128dc565b9350506020612969868287016128dc565b925050604061297a86828701612827565b9150509250925092565b6000819050919050565b61299781612984565b81146129a257600080fd5b50565b6000813590506129b48161298e565b92915050565b6000602082840312156129d0576129cf612459565b5b60006129de848285016129a5565b91505092915050565b6129f081612984565b82525050565b6000602082019050612a0b60008301846129e7565b92915050565b60008060408385031215612a2857612a27612459565b5b6000612a36858286016129a5565b9250506020612a47858286016128dc565b9150509250929050565b60038110612a5e57600080fd5b50565b600081359050612a7081612a51565b92915050565b60008060408385031215612a8d57612a8c612459565b5b6000612a9b85828601612827565b9250506020612aac85828601612a61565b9150509250929050565b600060208284031215612acc57612acb612459565b5b6000612ada848285016128dc565b91505092915050565b7f4e487b7100000000000000000000000000000000000000000000000000000000600052602160045260246000fd5b60038110612b2357612b22612ae3565b5b50565b6000819050612b3482612b12565b919050565b6000612b4482612b26565b9050919050565b612b5481612b39565b82525050565b600060c0820190508181036000830152612b7481896127b5565b90508181036020830152612b8881886127b5565b90508181036040830152612b9c81876127b5565b90508181036060830152612bb081866127b5565b9050612bbf6080830185612b4b565b612bcc60a0830184612745565b979650505050505050565b612be0816124e8565b8114612beb57600080fd5b50565b600081359050612bfd81612bd7565b92915050565b60008060408385031215612c1a57612c19612459565b5b6000612c28858286016128dc565b9250506020612c3985828601612bee565b9150509250929050565b600067ffffffffffffffff821115612c5e57612c5d612539565b5b612c6782612528565b9050602081019050919050565b6000612c87612c8284612c43565b612599565b905082815260208101848484011115612ca357612ca2612523565b5b612cae8482856125e5565b509392505050565b600082601f830112612ccb57612cca61251e565b5b8135612cdb848260208601612c74565b91505092915050565b60008060008060808587031215612cfe57612cfd612459565b5b6000612d0c878288016128dc565b9450506020612d1d878288016128dc565b9350506040612d2e87828801612827565b925050606085013567ffffffffffffffff811115612d4f57612d4e61245e565b5b612d5b87828801612cb6565b91505092959194509250565b60008060408385031215612d7e57612d7d612459565b5b6000612d8c858286016128dc565b9250506020612d9d858286016128dc565b9150509250929050565b7f4e487b7100000000000000000000000000000000000000000000000000000000600052601160045260246000fd5b6000612de18261273b565b91507fffffffffffffffffffffffffffffffffffffffffffffffffffffffffffffffff8203612e1357612e12612da7565b5b600182019050919050565b7f4e487b7100000000000000000000000000000000000000000000000000000000600052602260045260246000fd5b60006002820490506001821680612e6557607f821691505b602082108103612e7857612e77612e1e565b5b50919050565b60008190508160005260206000209050919050565b60006020601f8301049050919050565b600082821b905092915050565b600060088302612ee07fffffffffffffffffffffffffffffffffffffffffffffffffffffffffffffffff82612ea3565b612eea8683612ea3565b95508019841693508086168417925050509392505050565b6000819050919050565b6000612f27612f22612f1d8461273b565b612f02565b61273b565b9050919050565b6000819050919050565b612f4183612f0c565b612f55612f4d82612f2e565b848454612eb0565b825550505050565b600090565b612f6a612f5d565b612f75818484612f38565b505050565b5b81811015612f9957612f8e600082612f62565b600181019050612f7b565b5050565b601f821115612fde57612faf81612e7e565b612fb884612e93565b81016020851015612fc7578190505b612fdb612fd385612e93565b830182612f7a565b50505b505050565b600082821c905092915050565b600061300160001984600802612fe3565b1980831691505092915050565b600061301a8383612ff0565b9150826002028217905092915050565b6130338261276f565b67ffffffffffffffff81111561304c5761304b612539565b5b6130568254612e4d565b613061828285612f9d565b600060209050601f8311600181146130945760008415613082578287015190505b61308c858261300e565b8655506130f4565b601f1984166130a286612e7e565b60005b828110156130ca578489015182556001820191506020850194506020810190506130a5565b868310156130e757848901516130e3601f891682612ff0565b8355505b6001600288020188555050505b505050505050565b6000606082019050818103600083015261311681866127b5565b9050818103602083015261312a81856127b5565b9050818103604083015261313e81846127b5565b9050949350505050565b600060608201905061315d600083018661289b565b61316a6020830185612745565b613177604083018461289b565b949350505050565b7f436f6d706c61696e7420646f6573206e6f742065786973740000000000000000600082015250565b60006131b560188361277a565b91506131c08261317f565b602082019050919050565b600060208201905081810360008301526131e4816131a8565b9050919050565b60006020820190506132006000830184612b4b565b92915050565b600081905092915050565b600061321c8261276f565b6132268185613206565b935061323681856020860161278b565b80840191505092915050565b600061324e8285613211565b915061325a8284613211565b91508190509392505050565b600081519050919050565b600082825260208201905092915050565b600061328d82613266565b6132978185613271565b93506132a781856020860161278b565b6132b081612528565b840191505092915050565b60006080820190506132d0600083018761289b565b6132dd602083018661289b565b6132ea6040830185612745565b81810360608301526132fc8184613282565b905095945050505050565b6000815190506133168161248f565b92915050565b60006020828403121561333257613331612459565b5b600061334084828501613307565b91505092915050565b7f4e487b7100000000000000000000000000000000000000000000000000000000600052601260045260246000fd5b600060408201905061338d600083018561289b565b61339a6020830184612745565b9392505050565b60006040820190506133b6600083018561289b565b6133c360208301846129e7565b939250505056fea2646970667358221220130d6913a697ab9281edeaa8d334a14accbedcf82b73dd1b8b1a5028a71f87fc64736f6c63430008140033",
  "linkReferences": {},
  "deployedLinkReferences": {}
}